{
    "_format": "hh-sol-artifact-1",
    "contractName": "DexVault",
    "sourceName": "contracts/DexVault.sol",
    "abi": [
        {
            "inputs": [
                {
                    "internalType": "address",
                    "name": "admin",
                    "type": "address"
                },
                {
                    "components": [
                        {
                            "internalType": "bytes32",
                            "name": "assetId",
                            "type": "bytes32"
                        },
                        {
                            "internalType": "contract IERC20",
                            "name": "token",
                            "type": "address"
                        }
                    ],
                    "internalType": "struct DexVault.AssetConfig[]",
                    "name": "initialAssets",
                    "type": "tuple[]"
                }
            ],
            "stateMutability": "nonpayable",
            "type": "constructor"
        },
        {
            "inputs": [],
            "name": "AccessControlBadConfirmation",
            "type": "error"
        },
        {
            "inputs": [
                {
                    "internalType": "address",
                    "name": "account",
                    "type": "address"
                },
                {
                    "internalType": "bytes32",
                    "name": "neededRole",
                    "type": "bytes32"
                }
            ],
            "name": "AccessControlUnauthorizedAccount",
            "type": "error"
        },
        {
            "inputs": [],
            "name": "EmptyUpdates",
            "type": "error"
        },
        {
            "inputs": [
                {
                    "internalType": "uint256",
                    "name": "available",
                    "type": "uint256"
                },
                {
                    "internalType": "uint256",
                    "name": "required",
                    "type": "uint256"
                }
            ],
            "name": "InsufficientBalance",
            "type": "error"
        },
        {
            "inputs": [],
            "name": "InvalidAccount",
            "type": "error"
        },
        {
            "inputs": [],
            "name": "InvalidAmount",
            "type": "error"
        },
        {
            "inputs": [],
            "name": "InvalidAssetId",
            "type": "error"
        },
        {
            "inputs": [],
            "name": "ReentrancyGuardReentrantCall",
            "type": "error"
        },
        {
            "inputs": [
                {
                    "internalType": "address",
                    "name": "token",
                    "type": "address"
                }
            ],
            "name": "SafeERC20FailedOperation",
            "type": "error"
        },
        {
            "inputs": [
                {
                    "internalType": "bytes32",
                    "name": "settlementId",
                    "type": "bytes32"
                }
            ],
            "name": "SettlementAlreadyProcessed",
            "type": "error"
        },
        {
            "inputs": [
                {
                    "internalType": "bytes32",
                    "name": "assetId",
                    "type": "bytes32"
                },
                {
                    "internalType": "int256",
                    "name": "netDelta",
                    "type": "int256"
                }
            ],
            "name": "UnbalancedSettlement",
            "type": "error"
        },
        {
            "inputs": [
                {
                    "internalType": "bytes32",
                    "name": "assetId",
                    "type": "bytes32"
                }
            ],
            "name": "UnsupportedAsset",
            "type": "error"
        },
        {
            "anonymous": false,
            "inputs": [
                {
                    "indexed": true,
                    "internalType": "bytes32",
                    "name": "assetId",
                    "type": "bytes32"
                },
                {
                    "indexed": true,
                    "internalType": "address",
                    "name": "token",
                    "type": "address"
                }
            ],
            "name": "AssetRegistered",
            "type": "event"
        },
        {
            "anonymous": false,
            "inputs": [
                {
                    "indexed": true,
                    "internalType": "bytes32",
                    "name": "assetId",
                    "type": "bytes32"
                }
            ],
            "name": "AssetUnregistered",
            "type": "event"
        },
        {
            "anonymous": false,
            "inputs": [
                {
                    "indexed": true,
                    "internalType": "address",
                    "name": "account",
                    "type": "address"
                },
                {
                    "indexed": true,
                    "internalType": "bytes32",
                    "name": "assetId",
                    "type": "bytes32"
                },
                {
                    "indexed": false,
                    "internalType": "uint256",
                    "name": "amount",
                    "type": "uint256"
                },
                {
                    "indexed": true,
                    "internalType": "address",
                    "name": "token",
                    "type": "address"
                }
            ],
            "name": "Deposited",
            "type": "event"
        },
        {
            "anonymous": false,
            "inputs": [
                {
                    "indexed": true,
                    "internalType": "bytes32",
                    "name": "role",
                    "type": "bytes32"
                },
                {
                    "indexed": true,
                    "internalType": "bytes32",
                    "name": "previousAdminRole",
                    "type": "bytes32"
                },
                {
                    "indexed": true,
                    "internalType": "bytes32",
                    "name": "newAdminRole",
                    "type": "bytes32"
                }
            ],
            "name": "RoleAdminChanged",
            "type": "event"
        },
        {
            "anonymous": false,
            "inputs": [
                {
                    "indexed": true,
                    "internalType": "bytes32",
                    "name": "role",
                    "type": "bytes32"
                },
                {
                    "indexed": true,
                    "internalType": "address",
                    "name": "account",
                    "type": "address"
                },
                {
                    "indexed": true,
                    "internalType": "address",
                    "name": "sender",
                    "type": "address"
                }
            ],
            "name": "RoleGranted",
            "type": "event"
        },
        {
            "anonymous": false,
            "inputs": [
                {
                    "indexed": true,
                    "internalType": "bytes32",
                    "name": "role",
                    "type": "bytes32"
                },
                {
                    "indexed": true,
                    "internalType": "address",
                    "name": "account",
                    "type": "address"
                },
                {
                    "indexed": true,
                    "internalType": "address",
                    "name": "sender",
                    "type": "address"
                }
            ],
            "name": "RoleRevoked",
            "type": "event"
        },
        {
            "anonymous": false,
            "inputs": [
                {
                    "indexed": true,
                    "internalType": "bytes32",
                    "name": "settlementId",
                    "type": "bytes32"
                },
                {
                    "indexed": false,
                    "internalType": "uint256",
                    "name": "updateCount",
                    "type": "uint256"
                },
                {
                    "indexed": true,
                    "internalType": "address",
                    "name": "executor",
                    "type": "address"
                }
            ],
            "name": "SettlementProcessed",
            "type": "event"
        },
        {
            "anonymous": false,
            "inputs": [
                {
                    "indexed": true,
                    "internalType": "address",
                    "name": "account",
                    "type": "address"
                },
                {
                    "indexed": true,
                    "internalType": "bytes32",
                    "name": "assetId",
                    "type": "bytes32"
                },
                {
                    "indexed": false,
                    "internalType": "uint256",
                    "name": "amount",
                    "type": "uint256"
                },
                {
                    "indexed": true,
                    "internalType": "address",
                    "name": "token",
                    "type": "address"
                },
                {
                    "indexed": false,
                    "internalType": "address",
                    "name": "recipient",
                    "type": "address"
                }
            ],
            "name": "Withdrawn",
            "type": "event"
        },
        {
            "inputs": [],
            "name": "ASSET_MANAGER_ROLE",
            "outputs": [
                {
                    "internalType": "bytes32",
                    "name": "",
                    "type": "bytes32"
                }
            ],
            "stateMutability": "view",
            "type": "function"
        },
        {
            "inputs": [],
            "name": "DEFAULT_ADMIN_ROLE",
            "outputs": [
                {
                    "internalType": "bytes32",
                    "name": "",
                    "type": "bytes32"
                }
            ],
            "stateMutability": "view",
            "type": "function"
        },
        {
            "inputs": [],
            "name": "SETTLEMENT_ENGINE_ROLE",
            "outputs": [
                {
                    "internalType": "bytes32",
                    "name": "",
                    "type": "bytes32"
                }
            ],
            "stateMutability": "view",
            "type": "function"
        },
        {
            "inputs": [
                {
                    "internalType": "address",
                    "name": "account",
                    "type": "address"
                },
                {
                    "internalType": "bytes32",
                    "name": "assetId",
                    "type": "bytes32"
                }
            ],
            "name": "balanceOf",
            "outputs": [
                {
                    "internalType": "uint256",
                    "name": "",
                    "type": "uint256"
                }
            ],
            "stateMutability": "view",
            "type": "function"
        },
        {
            "inputs": [
                {
                    "internalType": "bytes32",
                    "name": "assetId",
                    "type": "bytes32"
                },
                {
                    "internalType": "uint256",
                    "name": "amount",
                    "type": "uint256"
                }
            ],
            "name": "deposit",
            "outputs": [],
            "stateMutability": "nonpayable",
            "type": "function"
        },
        {
            "inputs": [
                {
                    "internalType": "bytes32",
                    "name": "assetId",
                    "type": "bytes32"
                }
            ],
            "name": "getAsset",
            "outputs": [
                {
                    "internalType": "address",
                    "name": "token",
                    "type": "address"
                },
                {
                    "internalType": "bool",
                    "name": "supported",
                    "type": "bool"
                }
            ],
            "stateMutability": "view",
            "type": "function"
        },
        {
            "inputs": [
                {
                    "internalType": "bytes32",
                    "name": "role",
                    "type": "bytes32"
                }
            ],
            "name": "getRoleAdmin",
            "outputs": [
                {
                    "internalType": "bytes32",
                    "name": "",
                    "type": "bytes32"
                }
            ],
            "stateMutability": "view",
            "type": "function"
        },
        {
            "inputs": [
                {
                    "internalType": "bytes32",
                    "name": "role",
                    "type": "bytes32"
                },
                {
                    "internalType": "address",
                    "name": "account",
                    "type": "address"
                }
            ],
            "name": "grantRole",
            "outputs": [],
            "stateMutability": "nonpayable",
            "type": "function"
        },
        {
            "inputs": [
                {
                    "internalType": "bytes32",
                    "name": "role",
                    "type": "bytes32"
                },
                {
                    "internalType": "address",
                    "name": "account",
                    "type": "address"
                }
            ],
            "name": "hasRole",
            "outputs": [
                {
                    "internalType": "bool",
                    "name": "",
                    "type": "bool"
                }
            ],
            "stateMutability": "view",
            "type": "function"
        },
        {
            "inputs": [
                {
                    "internalType": "bytes32",
                    "name": "assetId",
                    "type": "bytes32"
                }
            ],
            "name": "isAssetSupported",
            "outputs": [
                {
                    "internalType": "bool",
                    "name": "",
                    "type": "bool"
                }
            ],
            "stateMutability": "view",
            "type": "function"
        },
        {
            "inputs": [
                {
                    "internalType": "bytes32",
                    "name": "",
                    "type": "bytes32"
                }
            ],
            "name": "processedSettlements",
            "outputs": [
                {
                    "internalType": "bool",
                    "name": "",
                    "type": "bool"
                }
            ],
            "stateMutability": "view",
            "type": "function"
        },
        {
            "inputs": [
                {
                    "internalType": "bytes32",
                    "name": "assetId",
                    "type": "bytes32"
                },
                {
                    "internalType": "contract IERC20",
                    "name": "token",
                    "type": "address"
                }
            ],
            "name": "registerAsset",
            "outputs": [],
            "stateMutability": "nonpayable",
            "type": "function"
        },
        {
            "inputs": [
                {
                    "internalType": "bytes32",
                    "name": "role",
                    "type": "bytes32"
                },
                {
                    "internalType": "address",
                    "name": "callerConfirmation",
                    "type": "address"
                }
            ],
            "name": "renounceRole",
            "outputs": [],
            "stateMutability": "nonpayable",
            "type": "function"
        },
        {
            "inputs": [
                {
                    "internalType": "bytes32",
                    "name": "role",
                    "type": "bytes32"
                },
                {
                    "internalType": "address",
                    "name": "account",
                    "type": "address"
                }
            ],
            "name": "revokeRole",
            "outputs": [],
            "stateMutability": "nonpayable",
            "type": "function"
        },
        {
            "inputs": [
                {
                    "internalType": "bytes32",
                    "name": "settlementId",
                    "type": "bytes32"
                },
                {
                    "components": [
                        {
                            "internalType": "address",
                            "name": "account",
                            "type": "address"
                        },
                        {
                            "internalType": "bytes32",
                            "name": "assetId",
                            "type": "bytes32"
                        },
                        {
                            "internalType": "int256",
                            "name": "amount",
                            "type": "int256"
                        }
                    ],
                    "internalType": "struct DexVault.BalanceUpdate[]",
                    "name": "updates",
                    "type": "tuple[]"
                }
            ],
            "name": "settleBatch",
            "outputs": [],
            "stateMutability": "nonpayable",
            "type": "function"
        },
        {
            "inputs": [
                {
                    "internalType": "bytes4",
                    "name": "interfaceId",
                    "type": "bytes4"
                }
            ],
            "name": "supportsInterface",
            "outputs": [
                {
                    "internalType": "bool",
                    "name": "",
                    "type": "bool"
                }
            ],
            "stateMutability": "view",
            "type": "function"
        },
        {
            "inputs": [
                {
                    "internalType": "bytes32",
                    "name": "assetId",
                    "type": "bytes32"
                }
            ],
            "name": "unregisterAsset",
            "outputs": [],
            "stateMutability": "nonpayable",
            "type": "function"
        },
        {
            "inputs": [
                {
                    "internalType": "bytes32",
                    "name": "assetId",
                    "type": "bytes32"
                },
                {
                    "internalType": "uint256",
                    "name": "amount",
                    "type": "uint256"
                },
                {
                    "internalType": "address",
                    "name": "recipient",
                    "type": "address"
                }
            ],
            "name": "withdraw",
            "outputs": [],
            "stateMutability": "nonpayable",
            "type": "function"
        }
    ],
    "bytecode": "0x60806040523480156200001157600080fd5b50604051620015ca380380620015ca83398101604081905262000034916200033c565b600180556001600160a01b0382166200006057604051630da30f6560e31b815260040160405180910390fd5b6200006d60008362000139565b506200009a7fb1fadd3142ab2ad7f1337ea4d97112bcc8337fc11ce5b20cb04ad038adf998198362000139565b50620000c77f12f311a7e96f43e652808afc1359aa99b9298abe67a3d1504c1b5b23936fa3908362000139565b5060005b8151811015620001305762000127828281518110620000ee57620000ee62000439565b6020026020010151600001518383815181106200010f576200010f62000439565b602002602001015160200151620001e860201b60201c565b600101620000cb565b5050506200044f565b6000828152602081815260408083206001600160a01b038516845290915281205460ff16620001de576000838152602081815260408083206001600160a01b03861684529091529020805460ff19166001179055620001953390565b6001600160a01b0316826001600160a01b0316847f2f8788117e7eff1d82e926ec794901d17c78024a50270940304540a733656f0d60405160405180910390a4506001620001e2565b5060005b92915050565b8162000207576040516307d7e52d60e51b815260040160405180910390fd5b6001600160a01b0381166200022f57604051630da30f6560e31b815260040160405180910390fd5b6040805180820182526001600160a01b0380841680835260016020808501918252600088815260029091528581209451855492511515600160a01b026001600160a81b0319909316941693909317179092559151909184917f7b8c7b505365aa1b7f9ce04295e6da7c743d877f121b9debcf6a8a9d1806ce469190a35050565b6001600160a01b0381168114620002c557600080fd5b50565b634e487b7160e01b600052604160045260246000fd5b604080519081016001600160401b0381118282101715620003035762000303620002c8565b60405290565b604051601f8201601f191681016001600160401b0381118282101715620003345762000334620002c8565b604052919050565b60008060408084860312156200035157600080fd5b83516200035e81620002af565b602085810151919450906001600160401b03808211156200037e57600080fd5b818701915087601f8301126200039357600080fd5b815181811115620003a857620003a8620002c8565b620003b8848260051b0162000309565b818152848101925060069190911b830184019089821115620003d957600080fd5b928401925b81841015620004295785848b031215620003f85760008081fd5b62000402620002de565b84518152858501516200041581620002af565b8187015283529285019291840191620003de565b8096505050505050509250929050565b634e487b7160e01b600052603260045260246000fd5b61116b806200045f6000396000f3fe608060405234801561001057600080fd5b50600436106101165760003560e01c806372cdd1ed116100a2578063a4b32de811610071578063a4b32de8146102b0578063b456690f146102d7578063c2867745146102fe578063d44fa33e14610311578063d547741f1461033b57600080fd5b806372cdd1ed1461026f5780637adfa2cd1461028257806391d1485414610295578063a217fddf146102a857600080fd5b80632f2ff15d116100e95780632f2ff15d146101de57806336568abe146101f15780633adab09c146102045780634d30b6be1461021757806358e316c71461024c57600080fd5b806301ffc9a71461011b5780631de26e1614610143578063248a9ca3146101585780632cc3ce8014610189575b600080fd5b61012e610129366004610ed7565b61034e565b60405190151581526020015b60405180910390f35b610156610151366004610f08565b610385565b005b61017b610166366004610f2a565b60009081526020819052604090206001015490565b60405190815260200161013a565b6101bf610197366004610f2a565b6000908152600260205260409020546001600160a01b03811691600160a01b90910460ff1690565b604080516001600160a01b03909316835290151560208301520161013a565b6101566101ec366004610f58565b610484565b6101566101ff366004610f58565b6104af565b610156610212366004610f88565b6104e7565b61017b610225366004610fc1565b60009081526003602090815260408083206001600160a01b03949094168352929052205490565b61012e61025a366004610f2a565b60046020526000908152604090205460ff1681565b61015661027d366004610f2a565b610646565b610156610290366004610fed565b6106f1565b61012e6102a3366004610f58565b610b1a565b61017b600081565b61017b7fb1fadd3142ab2ad7f1337ea4d97112bcc8337fc11ce5b20cb04ad038adf9981981565b61017b7f12f311a7e96f43e652808afc1359aa99b9298abe67a3d1504c1b5b23936fa39081565b61015661030c366004610f58565b610b43565b61012e61031f366004610f2a565b600090815260026020526040902054600160a01b900460ff1690565b610156610349366004610f58565b610b77565b60006001600160e01b03198216637965db0b60e01b148061037f57506301ffc9a760e01b6001600160e01b03198316145b92915050565b61038d610b9c565b806000036103ae5760405163162908e360e11b815260040160405180910390fd5b60008281526002602052604090208054600160a01b900460ff166103ec57604051625bd5ef60e11b8152600481018490526024015b60405180910390fd5b600083815260036020908152604080832033845290915281208054849290610415908490611082565b90915550508054610431906001600160a01b0316333085610bc6565b80546040518381526001600160a01b0390911690849033907fd2fe82007e50367f14ed8c65cbaa076e650f16b080faa9d8caa6d76dd53414439060200160405180910390a45061048060018055565b5050565b60008281526020819052604090206001015461049f81610c2d565b6104a98383610c3a565b50505050565b6001600160a01b03811633146104d85760405163334bd91960e11b815260040160405180910390fd5b6104e28282610ccc565b505050565b6104ef610b9c565b816000036105105760405163162908e360e11b815260040160405180910390fd5b6001600160a01b03811661053757604051630da30f6560e31b815260040160405180910390fd5b60008381526002602052604090208054600160a01b900460ff1661057057604051625bd5ef60e11b8152600481018590526024016103e3565b6000848152600360209081526040808320338452909152902054838110156105b55760405163cf47918160e01b815260048101829052602481018590526044016103e3565b6105bf8482611095565b600086815260036020908152604080832033845290915290205581546105ef906001600160a01b03168486610d37565b8154604080518681526001600160a01b03868116602083015290921691879133917f9a4c955adfc5e86dd66e91ebd2092bd1ba0ba56d8acf2c78222cd1789d53bd43910160405180910390a450506104e260018055565b7fb1fadd3142ab2ad7f1337ea4d97112bcc8337fc11ce5b20cb04ad038adf9981961067081610c2d565b60008281526002602052604090208054600160a01b900460ff166106a957604051625bd5ef60e11b8152600481018490526024016103e3565b60008381526002602052604080822080546001600160a81b03191690555184917fa3e9578f1c5e8499142bc3fccdee6c1fdad0b11a0fe2b4e326f3111c780474f591a2505050565b7f12f311a7e96f43e652808afc1359aa99b9298abe67a3d1504c1b5b23936fa39061071b81610c2d565b60008481526004602052604090205460ff161561074e5760405163547df5cb60e11b8152600481018590526024016103e3565b6000848152600460205260408120805460ff191660011790558290819003610789576040516362ab5bf760e01b815260040160405180910390fd5b60008167ffffffffffffffff8111156107a4576107a46110a8565b6040519080825280602002602001820160405280156107cd578160200160208202803683370190505b5090506000805b83811015610a4357368787838181106107ef576107ef6110be565b6060029190910191506000905061080960208301836110d4565b6001600160a01b03160361083057604051630da30f6560e31b815260040160405180910390fd5b80604001356000036108425750610a3b565b60208181013560009081526002909152604090208054600160a01b900460ff1661088457604051625bd5ef60e11b8152602083013560048201526024016103e3565b60208083013560009081526005909152604081205490036108c85781602001358585815181106108b6576108b66110be565b60209081029190910101526001909301925b602080830135600090815260059091526040808220546108eb91850135906110f1565b60208085013560009081526005909152604080822083905591925090840135131561097157602080840180356000908152600390925260408083209086013592909161093790876110d4565b6001600160a01b03166001600160a01b0316815260200190815260200160002060008282546109669190611082565b90915550610a379050565b60006109806040850135611119565b60208086018035600090815260039092526040822092935090919082906109a790886110d4565b6001600160a01b03166001600160a01b03168152602001908152602001600020549050818110156109f55760405163cf47918160e01b815260048101829052602481018390526044016103e3565b602080860180356000908152600390925260408220848403929091610a1a90896110d4565b6001600160a01b0316815260208101919091526040016000205550505b5050505b6001016107d4565b5060005b81811015610ad9576000838281518110610a6357610a636110be565b6020026020010151905060006005600083815260200190815260200160002054905080600014610ac1576000828152600560205260408082209190915551633f39a43f60e21b815260048101839052602481018290526044016103e3565b50600090815260056020526040812055600101610a47565b50604051838152339088907fa1d2a5d7b0a403850e5dc3feacbe3db62526c4ac5b2665152827a0dd4278ad299060200160405180910390a350505050505050565b6000918252602082815260408084206001600160a01b0393909316845291905290205460ff1690565b7fb1fadd3142ab2ad7f1337ea4d97112bcc8337fc11ce5b20cb04ad038adf99819610b6d81610c2d565b6104e28383610d68565b600082815260208190526040902060010154610b9281610c2d565b6104a98383610ccc565b600260015403610bbf57604051633ee5aeb560e01b815260040160405180910390fd5b6002600155565b6040516001600160a01b0384811660248301528381166044830152606482018390526104a99186918216906323b872dd906084015b604051602081830303815290604052915060e01b6020820180516001600160e01b038381831617835250505050610e2d565b610c378133610e9e565b50565b6000610c468383610b1a565b610cc4576000838152602081815260408083206001600160a01b03861684529091529020805460ff19166001179055610c7c3390565b6001600160a01b0316826001600160a01b0316847f2f8788117e7eff1d82e926ec794901d17c78024a50270940304540a733656f0d60405160405180910390a450600161037f565b50600061037f565b6000610cd88383610b1a565b15610cc4576000838152602081815260408083206001600160a01b0386168085529252808320805460ff1916905551339286917ff6391f5c32d9c69d2a47ea670b442974b53935d1edc7fd64eb21e047a839171b9190a450600161037f565b6040516001600160a01b038381166024830152604482018390526104e291859182169063a9059cbb90606401610bfb565b81610d86576040516307d7e52d60e51b815260040160405180910390fd5b6001600160a01b038116610dad57604051630da30f6560e31b815260040160405180910390fd5b6040805180820182526001600160a01b0380841680835260016020808501918252600088815260029091528581209451855492511515600160a01b026001600160a81b0319909316941693909317179092559151909184917f7b8c7b505365aa1b7f9ce04295e6da7c743d877f121b9debcf6a8a9d1806ce469190a35050565b600080602060008451602086016000885af180610e50576040513d6000823e3d81fd5b50506000513d91508115610e68578060011415610e75565b6001600160a01b0384163b155b156104a957604051635274afe760e01b81526001600160a01b03851660048201526024016103e3565b610ea88282610b1a565b6104805760405163e2517d3f60e01b81526001600160a01b0382166004820152602481018390526044016103e3565b600060208284031215610ee957600080fd5b81356001600160e01b031981168114610f0157600080fd5b9392505050565b60008060408385031215610f1b57600080fd5b50508035926020909101359150565b600060208284031215610f3c57600080fd5b5035919050565b6001600160a01b0381168114610c3757600080fd5b60008060408385031215610f6b57600080fd5b823591506020830135610f7d81610f43565b809150509250929050565b600080600060608486031215610f9d57600080fd5b83359250602084013591506040840135610fb681610f43565b809150509250925092565b60008060408385031215610fd457600080fd5b8235610fdf81610f43565b946020939093013593505050565b60008060006040848603121561100257600080fd5b83359250602084013567ffffffffffffffff8082111561102157600080fd5b818601915086601f83011261103557600080fd5b81358181111561104457600080fd5b87602060608302850101111561105957600080fd5b6020830194508093505050509250925092565b634e487b7160e01b600052601160045260246000fd5b8082018082111561037f5761037f61106c565b8181038181111561037f5761037f61106c565b634e487b7160e01b600052604160045260246000fd5b634e487b7160e01b600052603260045260246000fd5b6000602082840312156110e657600080fd5b8135610f0181610f43565b80820182811260008312801582168215821617156111115761111161106c565b505092915050565b6000600160ff1b820161112e5761112e61106c565b506000039056fea26469706673582212201de751fb698a933ad1786cb5eb9ba6e300910dbadb1466411331226f4aebd96b64736f6c63430008180033",
    "linkReferences": {},
    "deployedLinkReferences": {}
}